:100000000C9462000C948A000C948A000C948A0070
:100010000C948A000C948A000C948A000C948A0038
:100020000C948A000C948A000C948A000C948A0028
:100030000C948A000C948A000C948A000C948A0018
:100040000C94FC050C948A000C94CA050C94A4052D
:100050000C948A000C948A000C948A000C948A00F8
:100060000C9446060C948A0000000000240027002F
:100070002A0000000000250028002B0000000008D6
:10008000000201000003040700000000000000005F
:1000900000000000230026002900040404040404D6
:1000A0000404020202020202030303030303010227
:1000B00004081020408001020408102001020408F6
:1000C0001020AA0711241FBECFEFD8E0DEBFCDBF9E
:1000D00011E0A0E0B1E0ECEAF7E102C005900D927A
:1000E000A438B107D9F722E0A4E8B1E001C01D921D
:1000F000AC3FB207E1F710E0C2E6D0E004C02197C0
:10010000FE010E94CE0BC136D107C9F70E94F2074B
:100110000C94D40B0C94000008950895AF92BF92F4
:10012000CF92DF92EF92FF920F931F93CF93DF93C3
:100130006C017B018B01040F151FEB015E01AE18F2
:10014000BF08C017D10759F06991D601ED91FC9114
:100150000190F081E02DC6010995892B79F7C50141
:10016000DF91CF911F910F91FF90EF90DF90CF9093
:10017000BF90AF900895FC01538D448D252F30E042
:10018000842F90E0821B930B541710F0CF960895A4
:1001900001970895FC01918D828D981761F0A28DD1
:1001A000AE0FBF2FB11D5D968C91928D9F5F9F7397
:1001B000928F90E008958FEF9FEF0895FC01918D4D
:1001C000828D981731F0828DE80FF11D858D90E0BA
:1001D00008958FEF9FEF0895FC01918D228D892F57
:1001E00090E0805C9F4F821B91098F73992708953F
:1001F00087E492E00E94EC0021E0892B09F420E0E2
:10020000822F089580E090E0892B29F00E94F80069
:1002100081110C9400000895FC01A48DA80FB92F42
:10022000B11DA35ABF4F2C91848D90E001968F731E
:100230009927848FA689B7892C93A089B1898C913D
:10024000837080648C93938D848D981306C002888C
:10025000F389E02D80818F7D80830895EF92FF9256
:100260000F931F93CF93DF93EC0181E0888F9B8DD9
:100270008C8D98131AC0E889F989808185FF15C093
:100280009FB7F894EE89FF896083E889F9898081B6
:100290008370806480839FBF81E090E0DF91CF9185
:1002A0001F910F91FF90EF900895F62E0B8D10E0A7
:1002B0000F5F1F4F0F731127E02E8C8D8E110CC016
:1002C0000FB607FCFACFE889F989808185FFF5CF61
:1002D000CE010E940C01F1CFEB8DEC0FFD2FF11D33
:1002E000E35AFF4FF0829FB7F8940B8FEA89FB899E
:1002F00080818062CFCFCF93DF93EC01888D8823FC
:10030000B9F0AA89BB89E889F9898C9185FD03C078
:10031000808186FD0DC00FB607FCF7CF8C9185FF5D
:10032000F2CF808185FFEDCFCE010E940C01E9CF95
:10033000DF91CF91089590E0FC01E458FF4F2491A4
:10034000FC01E255FF4F3491FC01E656FF4FE4916A
:10035000EE23C9F0222339F0233001F1A8F4213033
:1003600019F1223029F1F0E0EE0FFF1FEE58FF4F98
:10037000A591B4918FB7F894EC91611126C0309596
:100380003E233C938FBF08952730A9F02830C9F051
:10039000243049F7809180008F7D03C080918000D8
:1003A0008F7780938000DFCF84B58F7784BDDBCFDC
:1003B00084B58F7DFBCF8091B0008F778093B000A4
:1003C000D2CF8091B0008F7DF9CF3E2BDACFCF9383
:1003D000DF9390E0FC01E255FF4F249186569F4F3A
:1003E000FC0184918823D1F090E0880F991FFC01D3
:1003F000E859FF4FA591B491FC01EE58FF4FC5910C
:10040000D49161110EC09FB7F8948C91E22FE095C2
:100410008E238C932881E223E8839FBFDF91CF91C5
:1004200008958FB7F894EC91E22BEC938FBFF6CF41
:100430003FB7F89480913B0290913C02A0913D021D
:10044000B0913E0226B5A89B05C02F3F19F001963A
:10045000A11DB11D3FBFBA2FA92F982F8827BC011E
:10046000CD01620F711D811D911D42E0660F771F46
:10047000881F991F4A95D1F708958F929F92AF9246
:10048000BF92CF92DF92EF92FF924B015C010E94EC
:1004900018026B017C010E9418026C197D098E09FB
:1004A0009F09683E734081059105A8F321E0821AF7
:1004B0009108A108B10888EEC80E83E0D81EE11C9F
:1004C000F11C81149104A104B10429F7FF90EF906D
:1004D000DF90CF90BF90AF909F908F900895089538
:1004E0002091C501260F3327331F21323105ECF44B
:1004F00020910E02FC0190E080E0243069F082E05F
:100500000895A091C5012191AC014B555E4FA40FF8
:10051000B52FB11D2C930196861798F38091C501D4
:10052000680F6093C50180E0089581E008951092FE
:100530000E0281E080930D021092E80161E082E1F9
:100540000E949B0161E083E10E949B01E9EBF0E0E6
:1005500080818E7F808380818D7F808388E48093FB
:10056000B80085E48093BC000895CF93DF9391E0B9
:100570009093A4018823B9F0C091B800D091BA003B
:100580008091BC008A7B8093BC0060E082E10E9485
:100590009B0160E083E10E949B010E949702D0933F
:1005A000BA00C093B800DF91CF9108950895E0910B
:1005B000460280914502E81730F4F0E0EC57FE4F18
:1005C000808190E008958FEF9FEF0895909146020B
:1005D000809145022FEF3FEF981748F4E92FF0E0A4
:1005E000EC57FE4F208130E09F5F90934602C90197
:1005F00008958091450290914602891B990B0895B8
:10060000CF92DF92EF92FF920F931F93CF93DF93DE
:100610007C01CB018A0120911402222389F0EB0195
:100620006B01C40ED51ECC15DD0569F06991D701AB
:10063000ED91FC910190F081E02DC7010995F3CF78
:10064000642F0E947002C801DF91CF911F910F911A
:10065000FF90EF90DF90CF900895CF93DF931F929C
:10066000CDB7DEB76983209114022223F9F02091DF
:100670004302203258F021E030E0FC013383228332
:1006800090E080E00F90DF91CF9108958091440237
:10069000E82FF0E0EB5EFD4F998190838F5F8093B0
:1006A00044028093430281E090E0ECCF61E0CE0110
:1006B00001960E947002F7CFCF92DF92EF92FF92E5
:1006C0000F931F93CF93DF93FC01C48121E020930C
:1006D0001402C093350210924402109243028385A3
:1006E000682B84EE92E00E942D03D0914302D13218
:1006F00008F092C00E9418026B017C0180910E02EA
:10070000811165C082E080930E0281E080930D022A
:100710008FEF80930C0210920B02D0930A02A5E196
:10072000B2E0EAEEF1E080E0D81385C01092E90172
:100730008091E901CC0FC82BC093E9018091E801B9
:10074000813009F07CC01092E8010E9418026B0110
:100750007C018091E9018093BB008091100290910F
:100760001102A0911202B0911302892B8A2B8B2BBC
:1007700099F00E941802009110021091110220912C
:100780001202309113026C197D098E099F09061718
:10079000170728073907E0F18091BC0083FDD9CF06
:1007A00085EC8093BC000E9418026B017C01809153
:1007B0000E02823009F445C080910C028F3F61F136
:1007C00080910C02803241F180910C0225C0809111
:1007D000100290911102A0911202B0911302892B84
:1007E0008A2B8B2B09F48ACF0E94180200911002E9
:1007F0001091110220911202309113026C197D099F
:100800008E099F09061717072807390708F076CFC2
:1008100080910F020E94B50210924402109243028E
:1008200010921402DF91CF911F910F91FF90EF90E2
:10083000DF90CF9008959D9191938F5F75CF85EE56
:10084000B0CF8091100290911102A0911202B0914C
:100850001302892B8A2B8B2B09F4A9CF0E94180233
:100860000091100210911102209112023091130296
:100870006C197D098E099F09061717072807390784
:1008800008F095CFC5CF90E080E00895FC0101907D
:100890000020E9F73197AF01481B590BBC0180EFED
:1008A00092E00C948E008F929F92AF92BF920F9322
:1008B0001F93CF93DF93CDB7DEB7A1970FB6F89410
:1008C000DEBF0FBECDBF19A2423008F44AE08E0150
:1008D0000F5D1F4F842E912CB12CA12CA5019401EA
:1008E0000E94AC0BE62FB901CA01EA30F4F4E05DD6
:1008F000D801EE938D01232B242B252B79F790E043
:1009000080E0109719F0CD010E944604A1960FB621
:10091000F894DEBF0FBECDBFDF91CF911F910F9135
:10092000BF90AF909F908F900895E95CE1CF0F93B7
:100930001F93CF938C01C62F0E945C036C2F6460C1
:10094000C8010E945C036C2F6B7FC8010E945C038E
:1009500083EC90E00197F1F7CF911F910F910895EB
:100960000F931F93CF93DF938C01D62FC42F607FFB
:10097000642B0E94970480E1D89FB00111246C2B56
:10098000C801DF91CF911F910F910C949704CF93E1
:10099000DF93823028F09091F50298609093F502F1
:1009A0008093F80262E370E080E090E00E943D02F4
:1009B0006091FB0280EF92E00E945C0368EE73E0BE
:1009C00080E090E00E943D0260E380EF92E00E94B0
:1009D0009704CBE4D6E4CE010197F1F760E380EF12
:1009E00092E00E9497042197F1F760E380EF92E094
:1009F0000E94970483E592E00197F1F760E280EFAF
:100A000092E00E9497046091F502606240E080EFFE
:100A100092E00E94B00484E08093F60240E06CE033
:100A200080EF92E00E94B00440E061E080EF92E04D
:100A30000E94B004CBE3DFE1CE010197F1F782E041
:100A40008093F70240E066E080EF92E00E94B004FD
:100A500040E062E080EF92E00E94B0042197F1F75D
:100A6000DF91CF910895CF93DF93CDB7DEB728976D
:100A70000FB6F894DEBF0FBECDBF98E0E0E0F1E026
:100A8000DE01119601900D929A95E1F79091F8028E
:100A9000961708F46FEF262F30E0220F331F41E046
:100AA00050E04C0F5D1F240F351FF9016081680F66
:100AB000606840E080EF92E028960FB6F894DEBFC1
:100AC0000FBECDBFDF91CF910C94B00441E00E94E6
:100AD000B00481E090E0089585ED8093BC008091A2
:100AE000100290911102A0911202B0911302079688
:100AF000A11DB11D23E0B695A795979587952A95D9
:100B0000D1F72091BC0024FD03C010920E0208957D
:100B100040911002509111026091120270911302E3
:100B2000452B462B472B69F30097A105B10541F0F2
:100B300025E32A95F1F700000197A109B109E1CF5A
:100B400080910F020C94B5021F920F920FB60F9274
:100B500011242F933F934F935F936F937F938F93C2
:100B60009F93AF93BF93EF93FF9387E492E00E942C
:100B70000C01FF91EF91BF91AF919F918F917F9168
:100B80006F915F914F913F912F910F900FBE0F90FA
:100B90001F9018951F920F920FB60F9211242F934A
:100BA0008F939F93EF93FF93E0915702F091580238
:100BB0008081E0915D02F0915E0282FD1BC0908118
:100BC000809160028F5F8F7320916102821741F0E4
:100BD000E0916002F0E0E95BFD4F958F8093600249
:100BE000FF91EF919F918F912F910F900FBE0F90DA
:100BF0001F9018958081F4CF1F920F920FB60F921D
:100C000011242F933F938F939F93AF93BF93809122
:100C1000370290913802A0913902B0913A02309196
:100C2000360223E0230F2D3758F50196A11DB11D83
:100C3000209336028093370290933802A0933902B2
:100C4000B0933A0280913B0290913C02A0913D0208
:100C5000B0913E020196A11DB11D80933B0290937D
:100C60003C02A0933D02B0933E02BF91AF919F9191
:100C70008F913F912F910F900FBE0F901F9018955D
:100C800026E8230F0296A11DB11DD2CF1F920F920D
:100C90000FB60F9211242F933F934F935F936F934F
:100CA0007F938F939F93AF93BF93EF93FF93809125
:100CB000B900887F803609F44AC0F0F5883209F41B
:100CC000A7C018F5803109F49BC0B8F4882309F453
:100CD000F9C0883009F494C0FF91EF91BF91AF91B2
:100CE0009F918F917F916F915F914F913F912F9144
:100CF0000F900FBE0F901F901895883109F488C08F
:100D0000803251F780930C0214C0803409F49DC0E6
:100D100040F48033B9F38833F9F680930C0285EC04
:100D2000B0C0803509F485C0883509F496C0883490
:100D300099F60E946C05D0CF883909F48CC038F53B
:100D4000883729F050F4883611F0803729F683E08F
:100D500080930E021092E70157C0883809F47BC0D7
:100D6000803919F0803809F0B7CF8091E7018032DF
:100D700008F071C0E091E70181E08E0F8093E701F8
:100D80008091BB00F0E0E953FE4F80833DC0803B83
:100D900039F0E0F4803A09F479C0883A09F09CCF40
:100DA00084E080930E021092C6011092C501E0917A
:100DB0004102F091420209958091C50181110FC055
:100DC00081E08093C5011092A50109C0803C09F41F
:100DD000A6CF883C09F4A3CF883B09F07DCFE091F2
:100DE000C60181E08E0F8093C601F0E0EB55FE4F07
:100DF00080818093BB009091C6018091C50129C07C
:100E00008091E9018093BB0085EC8093BC0064CFA6
:100E100090910B0280910A02981758F5E0910B020D
:100E200081E08E0F80930B02F0E0E651FE4F80814F
:100E3000E9CFE0910B0281E08E0F80930B0280914D
:100E4000BB00F0E0E651FE4F808390910B02809151
:100E50000A029817C8F285E8D8CFE0910B0281E02A
:100E60008E0F80930B028091BB00F0E0E651FE4FA5
:100E7000808380910D0281115CCF81E08093E80135
:100E800084EA8093BC0010920E0226CF85EC8093FA
:100E9000BC0010920E028091E701803230F4E091A4
:100EA000E701F0E0E953FE4F10826091E70170E046
:100EB000E0913F02F091400287EC91E00995109299
:100EC000E7010ACF10920C0234CFCF92DF92EF925B
:100ED000FF920F931F93E82FF92F05C001501109BE
:100EE0002109310961F1908196239417B9F305C066
:100EF000015011092109310911F1908196239413B0
:100F0000F7CFC12CD12CE12CF12C0AC08FEFC81ADD
:100F1000D80AE80AF80A0C151D052E053F0579F0D8
:100F200080818623841791F36C2D7D2D8E2D9F2D2E
:100F30001F910F91FF90EF90DF90CF90089560E0A8
:100F400070E080E090E01F910F91FF90EF90DF90B4
:100F5000CF900895E7E4F2E01382128288EE93E0E6
:100F6000A0E0B0E084839583A683B7832CE031E0D2
:100F70003183208325EC30E03587248724EC30E072
:100F80003787268720EC30E0318B208B21EC30E056
:100F9000338B228B22EC30E0358B248B26EC30E037
:100FA000378B268B118E128E138E148EE4EEF2E0A8
:100FB0001382128284839583A683B7838EE191E0A6
:100FC00091838083E0EFF2E01382128280E391E06C
:100FD0009183808387E2848380E1818782E08287B6
:100FE00013860895789484B5826084BD84B5816049
:100FF00084BD85B5826085BD85B5816085BD8091E4
:101000006E00816080936E0010928100809181005B
:101010008260809381008091810081608093810053
:10102000809180008160809380008091B100846015
:101030008093B1008091B00081608093B000809176
:101040007A00846080937A0080917A008260809335
:101050007A0080917A00816080937A0080917A0092
:10106000806880937A001092C100E0915702F0915D
:10107000580282E08083E0915302F0915402108282
:10108000E0915502F09156028FEC808310925F023E
:10109000E0915B02F0915C0286E08083E09159026E
:1010A000F0915A02808180618083E0915902F09131
:1010B0005A02808188608083E0915902F0915A023F
:1010C000808180688083E0915902F0915A0280818A
:1010D0008F7D808310924602109245021092440246
:1010E000109243020E9497028CE890E09093420293
:1010F000809341028DE890E09093400280933F02FC
:101100001092F5028091FA020E94C70482E00E94C8
:10111000C70488E08093FB0260E080EF92E00E94C9
:101120005C0361E083E00E94E70160E082E00E94EE
:10113000E70161E08AE00E94E70193E2292E312C69
:10114000C0E0D0E060E083E00E949B0183E090E09B
:101150000197F1F761E083E00E949B01C1010197D3
:10116000F1F760E083E00E949B01E0EBF0E0649126
:10117000ECE9F0E08491E82FF0E0EE0FFF1FE0577C
:10118000FF4F8591949100E315E720E030E0462F72
:101190000E946507611571058105910529F06F5F52
:1011A0007F4F8F4F9F4F9F700E94830A26E933E441
:1011B0004BE05DE30E943A0B20E030E040E05FE36B
:1011C0000E943A0B6B017C0160E080E00E943305D5
:1011D00088E391E00E944604A7019601C701B60189
:1011E0000E94A70B8823E9F182E491E00E94460463
:1011F00060E08EE00E9433058EE491E00E94460498
:1012000020E030E040E251E4C701B6010E944F0AFD
:1012100087FFA4C020E030E0A901C701B6010E9409
:10122000350B18160CF09AC061E08AE00E949B0111
:1012300061E080E00E94330581E591E00E94460470
:1012400064EF71E080E090E00E943D02209709F495
:1012500079CF0E94F800882309F474CF0E9400001F
:1012600071CF2FEF3FEF4FE75FE7C701B6010E9455
:10127000A70B81110DC02FEF3FEF4FE75FE7C701CD
:10128000B6010E944F0A18161CF486E491E0AECF16
:101290002FEF3FEF4FE75FE4C701B6010E94350B28
:1012A00018161CF48AE491E0A1CF2FEF3FEF4FE72F
:1012B0005FECC701B6010E944F0A87FDF3CF2AE019
:1012C00037ED43EA5BE3C701B6010E94E3092B0156
:1012D0003C010E94540A4B015C010E94830A9B015D
:1012E000AC01C301B2010E94E2092B013C014AE0BA
:1012F000C501B4010E94530441E06EE280EF92E028
:101300000E94B00420E030E040E251E4C301B201A9
:101310000E943A0B2B013C010E94540A4B01B12C54
:10132000A12C4AE0C501B4010E945304C501B401D7
:101330000E94830A9B01AC01C301B2010E94E20931
:1013400020E030E040E251E40E943A0B0E94540A4F
:1013500090E080E04AE00E9453044ACF20E030E071
:1013600040E251E4C701B6010E94350B1816FCF4A7
:1013700020E030E040EF51E4C701B6010E944F0A7F
:1013800087FF15C061E08AE00E949B0164EF71E075
:1013900080E090E00E943D0260E08AE00E949B01B4
:1013A00061E080E00E94330582E691E047CF60E093
:1013B0008AE00E949B0161E080E00E94330583E7A0
:1013C00091E03CCF5058BB27AA270E94FA090C9401
:1013D000FB0A0E94ED0A38F00E94F40A20F039F46A
:1013E0009F3F19F426F40C94EA0A0EF4E095E7FB0B
:1013F0000C94E40AE92F0E940C0B58F3BA17620709
:1014000073078407950720F079F4A6F50C942E0B4A
:101410000EF4E0950B2EBA2FA02D0B01B90190010F
:101420000C01CA01A0011124FF27591B99F0593F53
:1014300050F4503E68F11A16F040A22F232F342F9B
:101440004427585FF3CF469537952795A795F040E9
:101450005395C9F77EF41F16BA0B620B730B840BFE
:10146000BAF09150A1F0FF0FBB1F661F771F881FB6
:10147000C2F70EC0BA0F621F731F841F48F487950E
:1014800077956795B795F7959E3F08F0B0CF939500
:10149000880F08F09927EE0F9795879508950E9479
:1014A000C00A08F481E008950E94140B88F09F5749
:1014B00098F0B92F9927B751B0F0E1F0660F771F78
:1014C000881F991F1AF0BA95C9F714C0B13091F06E
:1014D0000E942E0BB1E008950C942E0B672F782FED
:1014E0008827B85F39F0B93FCCF386957795679533
:1014F000B395D9F73EF490958095709561957F4F9F
:101500008F4F9F4F0895E89409C097FB3EF4909544
:101510008095709561957F4F8F4F9F4F9923A9F0CC
:10152000F92F96E9BB279395F6958795779567955B
:10153000B795F111F8CFFAF4BB0F11F460FF1BC09F
:101540006F5F7F4F8F4F9F4F16C0882311F096E932
:1015500011C0772321F09EE8872F762F05C06623E0
:1015600071F096E8862F70E060E02AF09A95660F99
:10157000771F881FDAF7880F9695879597F9089552
:10158000990F0008550FAA0BE0E8FEEF1616170694
:10159000E807F907C0F012161306E407F50798F0FC
:1015A000621B730B840B950B39F40A2661F0232B15
:1015B000242B252B21F408950A2609F4A140A69591
:1015C0008FEF811D811D089597F99F6780E870E076
:1015D00060E008959FEF80EC089500240A941616A9
:1015E000170618060906089500240A941216130611
:1015F000140605060895092E0394000C11F488239F
:1016000052F0BB0F40F4BF2B11F460FF04C06F5FBA
:101610007F4F8F4F9F4F089557FD9058440F551F90
:1016200059F05F3F71F04795880F97FB991F61F064
:101630009F3F79F087950895121613061406551FDB
:10164000F2CF4695F1DF08C0161617061806991F47
:10165000F1CF86957105610508940895E894BB273C
:1016600066277727CB0197F908950E94C00A08F4EE
:101670008FEF08950E944D0B0C94FB0A0E94ED0A17
:1016800038F00E94F40A20F0952311F00C94E40A3B
:101690000C94EA0A11240C942F0B0E940C0B70F38B
:1016A000959FC1F3950F50E0551F629FF001729F07
:1016B000BB27F00DB11D639FAA27F00DB11DAA1F16
:1016C000649F6627B00DA11D661F829F2227B00D63
:1016D000A11D621F739FB00DA11D621F839FA00DEE
:1016E000611D221F749F3327A00D611D231F849F3E
:1016F000600D211D822F762F6A2F11249F57504095
:101700009AF0F1F088234AF0EE0FFF1FBB1F661F0F
:10171000771F881F91505040A9F79E3F510580F0D8
:101720000C94E40A0C942F0B5F3FE4F3983ED4F33F
:10173000869577956795B795F795E7959F5FC1F77C
:10174000FE2B880F911D9695879597F908950E9415
:10175000C00A880B990B0895A1E21A2EAA1BBB1B85
:10176000FD010DC0AA1FBB1FEE1FFF1FA217B3076D
:10177000E407F50720F0A21BB30BE40BF50B661F83
:10178000771F881F991F1A9469F760957095809547
:1017900090959B01AC01BD01CF010895EE0FFF1F95
:0C17A0000590F491E02D0994F894FFCF1F
:1017AC000000400014005400000000002E018E00C8
:1017BC00BB007B01EC00CA00DE00000000002D0322
:1017CC0000034304D602F902E602D702000000002F
:1017DC0066058E0043046F0244697374616E636521
:1017EC003A006E616E00696E66006F766600636D1E
:1017FC00002020202053544F502021212120202034
:10180C00200020202020544F4F204E4541522020B4
:10181C002020002020202020434C45415220202015
:04182C002020200058
:00000001FF
